{
  "contractName": "TokenForm",
  "abi": [
    {
      "inputs": [
        {
          "internalType": "contract DappToken",
          "name": "_dappToken",
          "type": "address"
        },
        {
          "internalType": "contract DaiToken",
          "name": "_daiToken",
          "type": "address"
        }
      ],
      "stateMutability": "nonpayable",
      "type": "constructor"
    },
    {
      "inputs": [],
      "name": "daiToken",
      "outputs": [
        {
          "internalType": "contract DaiToken",
          "name": "",
          "type": "address"
        }
      ],
      "stateMutability": "view",
      "type": "function",
      "constant": true
    },
    {
      "inputs": [],
      "name": "dappToken",
      "outputs": [
        {
          "internalType": "contract DappToken",
          "name": "",
          "type": "address"
        }
      ],
      "stateMutability": "view",
      "type": "function",
      "constant": true
    },
    {
      "inputs": [
        {
          "internalType": "address",
          "name": "",
          "type": "address"
        }
      ],
      "name": "hasStaked",
      "outputs": [
        {
          "internalType": "bool",
          "name": "",
          "type": "bool"
        }
      ],
      "stateMutability": "view",
      "type": "function",
      "constant": true
    },
    {
      "inputs": [
        {
          "internalType": "address",
          "name": "",
          "type": "address"
        }
      ],
      "name": "isStaking",
      "outputs": [
        {
          "internalType": "bool",
          "name": "",
          "type": "bool"
        }
      ],
      "stateMutability": "view",
      "type": "function",
      "constant": true
    },
    {
      "inputs": [],
      "name": "name",
      "outputs": [
        {
          "internalType": "string",
          "name": "",
          "type": "string"
        }
      ],
      "stateMutability": "view",
      "type": "function",
      "constant": true
    },
    {
      "inputs": [],
      "name": "owner",
      "outputs": [
        {
          "internalType": "address",
          "name": "",
          "type": "address"
        }
      ],
      "stateMutability": "view",
      "type": "function",
      "constant": true
    },
    {
      "inputs": [
        {
          "internalType": "uint256",
          "name": "",
          "type": "uint256"
        }
      ],
      "name": "stakers",
      "outputs": [
        {
          "internalType": "address",
          "name": "",
          "type": "address"
        }
      ],
      "stateMutability": "view",
      "type": "function",
      "constant": true
    },
    {
      "inputs": [
        {
          "internalType": "address",
          "name": "",
          "type": "address"
        }
      ],
      "name": "stakingBalance",
      "outputs": [
        {
          "internalType": "uint256",
          "name": "",
          "type": "uint256"
        }
      ],
      "stateMutability": "view",
      "type": "function",
      "constant": true
    },
    {
      "inputs": [
        {
          "internalType": "uint256",
          "name": "_amount",
          "type": "uint256"
        }
      ],
      "name": "stakeTokens",
      "outputs": [],
      "stateMutability": "nonpayable",
      "type": "function"
    },
    {
      "inputs": [],
      "name": "issueTokens",
      "outputs": [],
      "stateMutability": "nonpayable",
      "type": "function"
    },
    {
      "inputs": [],
      "name": "unStakeTokens",
      "outputs": [],
      "stateMutability": "nonpayable",
      "type": "function"
    }
  ],
  "bytecode": "0x60806040526040518060400160405280600f81526020017f4461707020546f6b656e20466f726d0000000000000000000000000000000000815250600090805190602001906200005192919062000150565b503480156200005f57600080fd5b506040516200146d3803806200146d8339818101604052810190620000859190620002c3565b81600160006101000a81548173ffffffffffffffffffffffffffffffffffffffff021916908373ffffffffffffffffffffffffffffffffffffffff16021790555080600260006101000a81548173ffffffffffffffffffffffffffffffffffffffff021916908373ffffffffffffffffffffffffffffffffffffffff16021790555033600360006101000a81548173ffffffffffffffffffffffffffffffffffffffff021916908373ffffffffffffffffffffffffffffffffffffffff16021790555050506200036f565b8280546200015e9062000339565b90600052602060002090601f016020900481019282620001825760008555620001ce565b82601f106200019d57805160ff1916838001178555620001ce565b82800160010185558215620001ce579182015b82811115620001cd578251825591602001919060010190620001b0565b5b509050620001dd9190620001e1565b5090565b5b80821115620001fc576000816000905550600101620001e2565b5090565b600080fd5b600073ffffffffffffffffffffffffffffffffffffffff82169050919050565b6000620002328262000205565b9050919050565b6000620002468262000225565b9050919050565b620002588162000239565b81146200026457600080fd5b50565b60008151905062000278816200024d565b92915050565b60006200028b8262000225565b9050919050565b6200029d816200027e565b8114620002a957600080fd5b50565b600081519050620002bd8162000292565b92915050565b60008060408385031215620002dd57620002dc62000200565b5b6000620002ed8582860162000267565b92505060206200030085828601620002ac565b9150509250929050565b7f4e487b7100000000000000000000000000000000000000000000000000000000600052602260045260246000fd5b600060028204905060018216806200035257607f821691505b602082108114156200036957620003686200030a565b5b50919050565b6110ee806200037f6000396000f3fe608060405234801561001057600080fd5b50600436106100a95760003560e01c80637547c7a3116100715780637547c7a3146101545780637896bf1d146101705780638da5cb5b1461017a578063be22f54614610198578063c93c8f34146101b6578063fd5e6dd1146101e6576100a9565b806306fdde03146100ae57806345bc78ab146100cc5780635eb186f8146100fc57806360ab58521461011a5780636f49712b14610124575b600080fd5b6100b6610216565b6040516100c39190610aa8565b60405180910390f35b6100e660048036038101906100e19190610b2d565b6102a4565b6040516100f39190610b73565b60405180910390f35b6101046102bc565b6040516101119190610bed565b60405180910390f35b6101226102e2565b005b61013e60048036038101906101399190610b2d565b6104d8565b60405161014b9190610c23565b60405180910390f35b61016e60048036038101906101699190610c6a565b6104f8565b005b61017861079c565b005b610182610964565b60405161018f9190610ca6565b60405180910390f35b6101a061098a565b6040516101ad9190610ce2565b60405180910390f35b6101d060048036038101906101cb9190610b2d565b6109b0565b6040516101dd9190610c23565b60405180910390f35b61020060048036038101906101fb9190610c6a565b6109d0565b60405161020d9190610ca6565b60405180910390f35b6000805461022390610d2c565b80601f016020809104026020016040519081016040528092919081815260200182805461024f90610d2c565b801561029c5780601f106102715761010080835404028352916020019161029c565b820191906000526020600020905b81548152906001019060200180831161027f57829003601f168201915b505050505081565b60056020528060005260406000206000915090505481565b600160009054906101000a900473ffffffffffffffffffffffffffffffffffffffff1681565b600360009054906101000a900473ffffffffffffffffffffffffffffffffffffffff1673ffffffffffffffffffffffffffffffffffffffff163373ffffffffffffffffffffffffffffffffffffffff1614610372576040517f08c379a000000000000000000000000000000000000000000000000000000000815260040161036990610daa565b60405180910390fd5b60005b6004805490508110156104d55760006004828154811061039857610397610dca565b5b9060005260206000200160009054906101000a900473ffffffffffffffffffffffffffffffffffffffff1690506000600560008373ffffffffffffffffffffffffffffffffffffffff1673ffffffffffffffffffffffffffffffffffffffff16815260200190815260200160002054905060008111156104c057600160009054906101000a900473ffffffffffffffffffffffffffffffffffffffff1673ffffffffffffffffffffffffffffffffffffffff1663a9059cbb8360028461045e9190610e57565b6040518363ffffffff1660e01b815260040161047b929190610e88565b6020604051808303816000875af115801561049a573d6000803e3d6000fd5b505050506040513d601f19601f820116820180604052508101906104be9190610edd565b505b505080806104cd90610f0a565b915050610375565b50565b60076020528060005260406000206000915054906101000a900460ff1681565b6000811161053b576040517f08c379a000000000000000000000000000000000000000000000000000000000815260040161053290610f9f565b60405180910390fd5b600260009054906101000a900473ffffffffffffffffffffffffffffffffffffffff1673ffffffffffffffffffffffffffffffffffffffff166323b872dd3330846040518463ffffffff1660e01b815260040161059a93929190610fbf565b6020604051808303816000875af11580156105b9573d6000803e3d6000fd5b505050506040513d601f19601f820116820180604052508101906105dd9190610edd565b5080600560003373ffffffffffffffffffffffffffffffffffffffff1673ffffffffffffffffffffffffffffffffffffffff168152602001908152602001600020600082825461062d9190610ff6565b92505081905550600660003373ffffffffffffffffffffffffffffffffffffffff1673ffffffffffffffffffffffffffffffffffffffff16815260200190815260200160002060009054906101000a900460ff166106e9576004339080600181540180825580915050600190039060005260206000200160009091909190916101000a81548173ffffffffffffffffffffffffffffffffffffffff021916908373ffffffffffffffffffffffffffffffffffffffff1602179055505b6001600760003373ffffffffffffffffffffffffffffffffffffffff1673ffffffffffffffffffffffffffffffffffffffff16815260200190815260200160002060006101000a81548160ff0219169083151502179055506001600660003373ffffffffffffffffffffffffffffffffffffffff1673ffffffffffffffffffffffffffffffffffffffff16815260200190815260200160002060006101000a81548160ff02191690831515021790555050565b6000600560003373ffffffffffffffffffffffffffffffffffffffff1673ffffffffffffffffffffffffffffffffffffffff16815260200190815260200160002054905060008111610823576040517f08c379a000000000000000000000000000000000000000000000000000000000815260040161081a90611098565b60405180910390fd5b600260009054906101000a900473ffffffffffffffffffffffffffffffffffffffff1673ffffffffffffffffffffffffffffffffffffffff1663a9059cbb33836040518363ffffffff1660e01b8152600401610880929190610e88565b6020604051808303816000875af115801561089f573d6000803e3d6000fd5b505050506040513d601f19601f820116820180604052508101906108c39190610edd565b506000600560003373ffffffffffffffffffffffffffffffffffffffff1673ffffffffffffffffffffffffffffffffffffffff168152602001908152602001600020819055506000600760003373ffffffffffffffffffffffffffffffffffffffff1673ffffffffffffffffffffffffffffffffffffffff16815260200190815260200160002060006101000a81548160ff02191690831515021790555050565b600360009054906101000a900473ffffffffffffffffffffffffffffffffffffffff1681565b600260009054906101000a900473ffffffffffffffffffffffffffffffffffffffff1681565b60066020528060005260406000206000915054906101000a900460ff1681565b600481815481106109e057600080fd5b906000526020600020016000915054906101000a900473ffffffffffffffffffffffffffffffffffffffff1681565b600081519050919050565b600082825260208201905092915050565b60005b83811015610a49578082015181840152602081019050610a2e565b83811115610a58576000848401525b50505050565b6000601f19601f8301169050919050565b6000610a7a82610a0f565b610a848185610a1a565b9350610a94818560208601610a2b565b610a9d81610a5e565b840191505092915050565b60006020820190508181036000830152610ac28184610a6f565b905092915050565b600080fd5b600073ffffffffffffffffffffffffffffffffffffffff82169050919050565b6000610afa82610acf565b9050919050565b610b0a81610aef565b8114610b1557600080fd5b50565b600081359050610b2781610b01565b92915050565b600060208284031215610b4357610b42610aca565b5b6000610b5184828501610b18565b91505092915050565b6000819050919050565b610b6d81610b5a565b82525050565b6000602082019050610b886000830184610b64565b92915050565b6000819050919050565b6000610bb3610bae610ba984610acf565b610b8e565b610acf565b9050919050565b6000610bc582610b98565b9050919050565b6000610bd782610bba565b9050919050565b610be781610bcc565b82525050565b6000602082019050610c026000830184610bde565b92915050565b60008115159050919050565b610c1d81610c08565b82525050565b6000602082019050610c386000830184610c14565b92915050565b610c4781610b5a565b8114610c5257600080fd5b50565b600081359050610c6481610c3e565b92915050565b600060208284031215610c8057610c7f610aca565b5b6000610c8e84828501610c55565b91505092915050565b610ca081610aef565b82525050565b6000602082019050610cbb6000830184610c97565b92915050565b6000610ccc82610bba565b9050919050565b610cdc81610cc1565b82525050565b6000602082019050610cf76000830184610cd3565b92915050565b7f4e487b7100000000000000000000000000000000000000000000000000000000600052602260045260246000fd5b60006002820490506001821680610d4457607f821691505b60208210811415610d5857610d57610cfd565b5b50919050565b7f63616c6c6572206d75737420626520746865206f776e65720000000000000000600082015250565b6000610d94601883610a1a565b9150610d9f82610d5e565b602082019050919050565b60006020820190508181036000830152610dc381610d87565b9050919050565b7f4e487b7100000000000000000000000000000000000000000000000000000000600052603260045260246000fd5b7f4e487b7100000000000000000000000000000000000000000000000000000000600052601260045260246000fd5b7f4e487b7100000000000000000000000000000000000000000000000000000000600052601160045260246000fd5b6000610e6282610b5a565b9150610e6d83610b5a565b925082610e7d57610e7c610df9565b5b828204905092915050565b6000604082019050610e9d6000830185610c97565b610eaa6020830184610b64565b9392505050565b610eba81610c08565b8114610ec557600080fd5b50565b600081519050610ed781610eb1565b92915050565b600060208284031215610ef357610ef2610aca565b5b6000610f0184828501610ec8565b91505092915050565b6000610f1582610b5a565b91507fffffffffffffffffffffffffffffffffffffffffffffffffffffffffffffffff821415610f4857610f47610e28565b5b600182019050919050565b7f616d6f756e742063616e206e6f74206265203000000000000000000000000000600082015250565b6000610f89601383610a1a565b9150610f9482610f53565b602082019050919050565b60006020820190508181036000830152610fb881610f7c565b9050919050565b6000606082019050610fd46000830186610c97565b610fe16020830185610c97565b610fee6040830184610b64565b949350505050565b600061100182610b5a565b915061100c83610b5a565b9250827fffffffffffffffffffffffffffffffffffffffffffffffffffffffffffffffff0382111561104157611040610e28565b5b828201905092915050565b7f7374616b696e672062616c6163652063616e206e6f7420626520300000000000600082015250565b6000611082601b83610a1a565b915061108d8261104c565b602082019050919050565b600060208201905081810360008301526110b181611075565b905091905056fea264697066735822122082831df8c60bb129cf1793344765e127c1fd0ed065bc034618d171fb1b91c9b764736f6c634300080b0033",
  "immutableReferences": {},
  "source": "//SPDX-License-Identifier: UNLICENSED\r\npragma solidity >=0.5.0 < 0.9.0;\r\n\r\nimport \"./DaiToken.sol\";\r\nimport \"./DappToken.sol\";\r\n\r\ncontract TokenForm{\r\n    string public name=\"Dapp Token Form\";\r\n    DappToken public dappToken;\r\n    DaiToken public daiToken; \r\n    address public owner;\r\n\r\n    address[] public stakers;\r\n    mapping(address=>uint) public stakingBalance;\r\n    mapping(address=>bool) public hasStaked;\r\n    mapping(address=>bool) public isStaking;\r\n\r\n    constructor(DappToken _dappToken,DaiToken _daiToken){\r\n        dappToken=_dappToken;\r\n        daiToken=_daiToken;\r\n        owner=msg.sender;\r\n    }\r\n\r\n    function stakeTokens(uint _amount) public{\r\n        require(_amount>0,\"amount can not be 0\");\r\n        //Deposit Dai Token\r\n        //Transfer Dai token to this contracts address from client\r\n        daiToken.transferFrom(msg.sender, address(this), _amount);\r\n        stakingBalance[msg.sender]+=_amount;\r\n\r\n        if(!hasStaked[msg.sender]){\r\n            stakers.push(msg.sender);\r\n        }\r\n        \r\n        isStaking[msg.sender]=true;\r\n        hasStaked[msg.sender]=true;\r\n    } \r\n\r\n    //issu Dapp token as inteset\r\n    function issueTokens ()public{\r\n        require(msg.sender==owner,\"caller must be the owner\");\r\n        for(uint i=0;i<stakers.length;i++){\r\n            address recipient=stakers[i];\r\n            uint balance=stakingBalance[recipient];\r\n            if(balance>0){\r\n                dappToken.transfer(recipient, balance / 2);\r\n            }\r\n        }\r\n    }\r\n\r\n    //investors winthdraw tokens\r\n    function unStakeTokens()public{\r\n        uint balance=stakingBalance[msg.sender];\r\n        require(balance>0,\"staking balace can not be 0\");\r\n        daiToken.transfer(msg.sender, balance);\r\n        stakingBalance[msg.sender]=0;\r\n        isStaking[msg.sender]=false;\r\n    }\r\n}",
  "sourcePath": "C:\\Users\\ACT\\Desktop\\blockchain_long_journey\\project_one\\contracts\\TokenForm.sol",
  "compiler": {
    "name": "solc",
    "version": "0.8.11+commit.d7f03943.Emscripten.clang"
  },
  "schemaVersion": "3.4.4",
  "updatedAt": "2022-02-20T15:02:22.178Z",
  "networkType": "ethereum",
  "devdoc": {
    "kind": "dev",
    "methods": {},
    "version": 1
  },
  "userdoc": {
    "kind": "user",
    "methods": {},
    "version": 1
  }
}